:020000040800F2
:1000000000500020953A0008253A00082B3A0008D5
:10001000313A0008373A00083D3A00080000000075
:10002000000000000000000000000000433A00084B
:100030004F3A0008000000005B3A0008673A0008E9
:10004000DD3A0008DD3A0008DD3A0008DD3A000834
:10005000DD3A0008DD3A0008DD3A0008DD3A000824
:10006000DD3A0008DD3A0008DD3A0008DD3A000814
:10007000DD3A0008DD3A0008DD3A0008DD3A000804
:10008000DD3A0008DD3A0008DD3A0008DD3A0008F4
:10009000DD3A0008DD3A0008DD3A0008DD3A0008E4
:1000A000DD3A0008DD3A0008DD3A0008DD3A0008D4
:1000B000753A0008DD3A0008DD3A0008DD3A00082C
:1000C000DD3A0008DD3A0008DD3A0008DD3A0008B4
:1000D000DD3A0008DD3A0008DD3A0008DD3A0008A4
:1000E000DD3A0008DD3A0008DD3A000800000000B3
:1000F0000000000000000000000000000000000000
:0C01000000000000000000005FF808F1A3
:10010C0010B5054C237833B9044B13B10448AFF345
:10011C0000800123237010BD20000020000000008F
:10012C002464000808B5034B1BB103490348AFF323
:10013C00008008BD0000000024000020246400089A
:10014C0080B588B000AF786003F0C8FE01237B61F6
:10015C000123FB617B68BB6100233B6107F10C024F
:10016C0007F110031146184603F0A0FF03F0DCFE64
:10017C0000BF2037BD4680BDB0B582B000AF7860FF
:10018C000B467B8003F0AAFE7B8800221C4615469A
:10019C0022462B467968012003F030FE03F0C4FEA2
:1001AC0000BF0837BD46B0BD80B586B000AFF86063
:1001BC00B9601346FB8003F091FE0023FB820CE038
:1001CC00FA8AFB68D018FB8ABA6813441B88194654
:1001DC00FFF7D2FFFB8A0233FB82FA8AFB889A4232
:1001EC00EED303F0A1FE00BF1837BD4680BD80B42E
:1001FC0083B000AF78607B681B78DBB218460C3795
:10020C00BD4680BC704780B483B000AF78607B681B
:10021C001B889BB218460C37BD4680BC704780B417
:10022C0083B000AF78607B68D3E900231046194691
:10023C000C37BD4680BC704780B487B000AFF86007
:10024C00B9601346FB800023FB820CE0FA8AFB6842
:10025C0013441946FB8ABA6813440A78D2B21A704E
:10026C00FB8A0133FB82FA8AFB889A42EED300BFE9
:10027C0000BF1C37BD4680BC7047000080B582B003
:10028C0000AF0346FB7120211D4804F03BF90346E7
:10029C00002B05D1FB79013B1A4A12F823302BE0D5
:1002AC004021174804F02EF90346002B06D1FB79A8
:1002BC00013B144A9B0013445B781DE080211048DD
:1002CC0004F020F90346002B06D1FB79013B0D4AC3
:1002DC009B0013449B780FE04FF48071084804F0A6
:1002EC0011F90346002B06D1FB79013B054A9B0013
:1002FC001344DB7800E0002318460837BD4680BD68
:10030C00000C01403869000880B582B000AF0122B2
:10031C004FF40041404804F00CF9012208213F48F9
:10032C0004F007F9012210213C4804F002F90022E4
:10033C004FF48051384804F0FCF80120FFF79EFF81
:10034C000346FB71FB79002B01D0FB7960E00122A5
:10035C004FF48051304804F0ECF8012208212F486A
:10036C0004F0E7F8012210212C4804F0E2F80022F6
:10037C004FF40041284804F0DCF80220FFF77EFF20
:10038C000346FB71FB79002B01D0FB7940E0012285
:10039C004FF48051204804F0CCF801224FF4004176
:1003AC001D4804F0C6F8012210211C4804F0C1F8C5
:1003BC0000220821194804F0BCF80320FFF75EFF67
:1003CC000346FB71FB79002B01D0FB7920E0012265
:1003DC004FF48051104804F0ACF801224FF4004166
:1003EC000D4804F0A6F8012208210C4804F0A1F8ED
:1003FC0000221021094804F09CF80420FFF73EFF6E
:10040C000346FB71FB79002B01D0FB7900E0002344
:10041C0018460837BD4680BD00080140000C01405D
:10042C0080B584B000AFF860B96011461A460B462F
:10043C00FB711346BB71FB683A7E9A70FB6808220D
:10044C00DA70FB68FA791A70FB68BA795A70FB6833
:10045C00BA689A60FB6804221A71282003F09CFB8E
:10046C003021F86800F047F8052003F095FB3021A7
:10047C00F86800F040F8012003F08EFB3021F8689A
:10048C0000F039F80A2003F087FB2021F86800F00F
:10049C0032F80A2003F080FB2821F86800F02BF8D2
:1004AC00012003F079FB0821F86800F024F8012002
:1004BC0003F072FB0121F86800F01DF8012003F035
:1004CC006BFB012003F068FB0621F86800F013F8C1
:1004DC00012003F061FBFB681B7943F00803DBB2DE
:1004EC001946F86800F007F8012003F055FB00BF2F
:1004FC001037BD4680BD80B586B002AF78600B4624
:10050C00FB70FB7823F00F03FB73FB781B01BB73B1
:10051C00FB7B43F00C03DBB23B72FB7B43F0080329
:10052C00DBB27B72BB7B43F00C03DBB2BB72BB7BDD
:10053C0043F00803DBB2FB727B6898687B689B789E
:10054C0099B207F1080264230093042304F066F9BE
:10055C0000BF1037BD4680BD80B586B002AF786055
:10056C000B46FB70FB7823F00F03FB73FB781B012E
:10057C00BB73FB7B43F00D03DBB23B72FB7B43F0A5
:10058C000903DBB27B72BB7B43F00D03DBB2BB72A6
:10059C00BB7B43F00903DBB2FB727B6898687B681A
:1005AC009B7899B207F1080264230093042304F0AA
:1005BC0035F900BF1037BD4680BD000080B584B052
:1005CC0000AF78600B46FB701346BB700F4BFB60A3
:1005DC007B685B78BA789A4203D97B685B78013B7D
:1005EC00BB70BB7810333B4413F8042CFB781344DA
:1005FC00DBB25BB263F07F035BB2DBB219467868A7
:10060C00FFF779FF00BF1037BD4680BD0040145482
:10061C0080B584B000AF78600B46FB701346BB709E
:10062C000F4BFB607B685B78BA789A4203D97B6886
:10063C005B78013BBB70BB7810333B4413F8042C44
:10064C00FB781344DBB25BB263F07F035BB2DBB2CB
:10065C0019467868FFF74FFF00BF1037BD4680BDC5
:10066C000040145480B586B002AF78600B46FB7026
:10067C00FB7823F00F03FB73FB781B01BB73FB7B35
:10068C0043F00D03DBB23B72FB7B43F00903DBB29F
:10069C007B72BB7B43F00D03DBB2BB72BB7B43F0C5
:1006AC000903DBB2FB727B6898687B689B7899B214
:1006BC0007F1080264230093042304F0AFF800BF91
:1006CC001037BD4680BD80B582B000AF7860396010
:1006DC0007E03B685A1C3A601B7819467868FFF7AC
:1006EC003BFF3B681B78002BF3D100BF00BF0837E2
:1006FC00BD4680BD80B582B000AF786001217868BE
:10070C00FFF7F9FE052003F047FA00220021786874
:10071C00FFF754FF00BF0837BD4680BD80B582B0DF
:10072C0000AF78604FF400510A4803F01AFF0A4BEF
:10073C001B78002B06D0084B1B78013BDAB2064B1A
:10074C001A7002E0044B00221A7000BF0837BD4635
:10075C0080BD00BF001001400000002080B584B0B7
:10076C0002AF03F0B7F900F0DBF800F0D1F900F0BC
:10077C004BF900F07FF900F019F902F0F7FD4E2368
:10078C000093022310225B495B48FFF749FE5B484C
:10079C0005F06CFA02F07EFA0346002B01D102F050
:1007AC005FFC002200215448FFF732FF54495248A5
:1007BC00FFF789FF00F04AFA0346002B5AD0514B41
:1007CC000F221A70012200214B48FFF721FF4E49DE
:1007DC004948FFF778FF0023FB7126E04B4802F0F5
:1007EC00E9FD0346002B08D1484802F023FA0346E2
:1007FC00FB71FB791B09FB711BE000F027FA034628
:10080C00BB71BB79002B10D0032B00D007E002F09A
:10081C00CBFC6323FB713B4B00221A7005E00223D7
:10082C00FB71384B00221A7000BF364B1B78002B23
:10083C00D4D1FB79012B02D0632B03D006E000F05E
:10084C0083FA17E02C48FFF755FF13E02A48FFF70F
:10085C0051FF002200212848FFF7DAFE2C492648D8
:10086C00FFF731FF4FF4FA6003F096F92248FFF7D7
:10087C0041FF00BF254802F09DFD0346002B90D19F
:10088C00224802F0D7F90346002B19D01A48FFF77B
:10089C0031FF002200211848FFF7BAFE1D49164807
:1008AC00FFF711FF012200211348FFF7B1FE1A498F
:1008BC001148FFF708FF40F6B83003F06DF970E708
:1008CC000D48FFF717FF002200210B48FFF7A0FE91
:1008DC0012490948FFF7F7FE012200210648FFF7ED
:1008EC0097FE0D490448FFF7EEFE40F6B83003F0D2
:1008FC0053F956E73C00002040010020E80000209E
:10090C003C640008000000204C640008300100200A
:10091C005C6400086C6400084C01002078640008DA
:10092C0080B590B000AF07F11803282200211846BB
:10093C0005F046FD3B1D00221A605A609A60DA6091
:10094C001A610123BB614FF48033FB6100233B62CE
:10095C000123BB6202237B634FF48033BB634FF4F0
:10096C00E013FB6307F11803184604F05DFA034625
:10097C00002B01D002F0CCFC0F237B600223BB6068
:10098C000023FB604FF480633B6100237B613B1DC4
:10099C000221184604F0CAFC0346002B01D002F0D9
:1009AC00B7FC00BF4037BD4680BD000080B500AF2E
:1009BC00124B134A1A60114B124A5A600F4B002209
:1009CC009A600E4B0022DA600C4B4FF480421A6195
:1009DC000A4B00225A61094B00229A61074B0022F4
:1009EC00DA61064B00221A62044803F0D3FD034679
:1009FC00002B01D002F08CFC00BF80BD3C0000201D
:100A0C0000580040A086010080B500AF174B184A73
:100A1C001A60164B4FF482725A60144B00229A6083
:100A2C00124B0022DA60114B00221A610F4B00228C
:100A3C005A610E4B4FF400729A610C4B3022DA6102
:100A4C000A4B00221A62094B00225A62074B002201
:100A5C009A62064B0A22DA62044804F0EBFD034664
:100A6C00002B01D002F054FC00BF80BD9000002090
:100A7C000030014080B586B000AF07F108030022BA
:100A8C001A605A609A60DA603B4600221A605A601B
:100A9C001E4B4FF080421A601C4B48F69F425A6026
:100AAC001A4B00229A60194B40F2CF72DA60174B46
:100ABC0000221A61154B80229A61144805F086F8C1
:100ACC000346002B01D002F023FC4FF48053BB6093
:100ADC0007F1080319460D4805F022FA0346002BCE
:100AEC0001D002F015FC00233B6000237B603B46E9
:100AFC001946064805F0F4FB0346002B01D002F022
:100B0C0007FC00BF1837BD4680BD00BFE8000020C1
:100B1C0080B588B000AF07F1100300221A605A604C
:100B2C009A60DA60454B9B69444A43F01003936129
:100B3C00424B9B6903F01003FB60FB683F4B9B69C6
:100B4C003E4A43F0200393613C4B9B6903F0200326
:100B5C00BB60BB68394B9B69384A43F00403936113
:100B6C00364B9B6903F004037B607B68334B9B69BA
:100B7C00324A43F008039361304B9B6903F008033E
:100B8C003B603B6800224FF400512D4803F0D1FC30
:100B9C00002249F210412B4803F0CBFC0022182113
:100BAC00294803F0C6FC4FF400533B6101237B61E1
:100BBC000023BB610223FB6107F110031946204897
:100BCC0003F01CFB49F210433B6101237B610023C2
:100BDC00BB610223FB6107F110031946194803F0AE
:100BEC000DFB48F2E0133B6100237B610123BB61E9
:100BFC0007F110031946144803F000FB4FF48073FF
:100C0C003B6100237B610123BB6107F11003194693
:100C1C000C4803F0F3FA18233B6101237B6100239A
:100C2C00BB610223FB6107F110031946064803F070
:100C3C00E5FA00BF2037BD4680BD00BF0010024062
:100C4C000010014000080140000C014080B582B04A
:100C5C0000AFFFF759FB03462A2B01D0002330E0ED
:100C6C00322002F099FFFFF74FFB03462A2B01D0ED
:100C7C00002326E03223FB711DE00A2002F08CFFDA
:100C8C00FB79013BFB71FB79002B14D1FA23FB712F
:100C9C000AE00A2002F080FFFB79013BFB71FB7933
:100CAC00002B01D103230CE0FFF72EFB03462A2B6C
:100CBC00EFD0022305E0FFF727FB03462A2BDCD0FD
:100CCC00012318460837BD4680BD80B582B000AF01
:100CDC00FFF71AFB0346232B01D0002330E0322010
:100CEC0002F05AFFFFF710FB0346232B01D0002321
:100CFC0026E03223FB711DE00A2002F04DFFFB7948
:100D0C00013BFB71FB79002B14D1FA23FB710AE038
:100D1C000A2002F041FFFB79013BFB71FB79002BB0
:100D2C0001D103230CE0FFF7EFFA0346232BEFD09E
:100D3C00022305E0FFF7E8FA0346232BDCD001235E
:100D4C0018460837BD4680BD80B586B000AFB04BA5
:100D5C000F221A70FF23FB75AE48FFF7CBFC002265
:100D6C000021AC48FFF754FCAB49AA48FFF7ABFC99
:100D7C0001220021A748FFF74BFCA849A548FFF723
:100D8C00A2FC01F0F7BEFFF7A0FF0346002B6ED0CC
:100D9C009F4B0F221A70FB7D0133FB75FB7D032BE0
:100DAC0001D8FB7D00E00023FB75FB7D022B32D0CC
:100DBC00022B46DC002B02D0012B16D041E09548CB
:100DCC00FFF798FC002200219248FFF721FC944980
:100DDC009048FFF778FC012200218E48FFF718FCA1
:100DEC0090498C48FFF76FFC41E08A48FFF782FC82
:100DFC00002200218748FFF70BFC8B498548FFF741
:100E0C0062FC012200218348FFF702FC87498148DC
:100E1C00FFF759FC2BE07F48FFF76CFC0022002108
:100E2C007C48FFF7F5FB7F497A48FFF74CFC012221
:100E3C0000217848FFF7ECFB7D497648FFF743FC2F
:100E4C0015E07448FFF756FC002200217148FFF7AB
:100E5C00DFFB78496F48FFF736FC012200216D4813
:100E6C00FFF7D6FB74496B48FFF72DFC00BFFFF76B
:100E7C00EDFE0346002B01F07D86654B0F221A70A8
:100E8C00FB7D022B01F05A86022B01F36F86002B9F
:100E9C0004D0012B00F0A58501F068BE5D48FFF77A
:100EAC0029FC002200215B48FFF7B2FB634959483B
:100EBC00FFF709FC012200215648FFF7A9FB57490F
:100ECC005448FFF700FC0023BB7501237B7500F031
:100EDC006DBD4F4B1B78002B08D14E48FFF70AFC19
:100EEC004FF47A7002F058FE01F050BEFFF7EDFEA1
:100EFC000346002B54D0464B0F221A70BB7D013396
:100F0C00BB75BB7D022B01D8BB7D00E00023BB75FC
:100F1C00BB7D012B02D0022B16D02BE03D48FFF7F6
:100F2C00E9FB002200213B48FFF772FB444939489A
:100F3C00FFF7C9FB012200213648FFF769FB414945
:100F4C003448FFF7C0FB2BE03248FFF7D3FB0022FD
:100F5C0000213048FFF75CFB3B492E48FFF7B3FB01
:100F6C00012200212B48FFF753FB38492948FFF792
:100F7C00AAFB15E02748FFF7BDFB002200212548FE
:100F8C00FFF746FB2F492348FFF79DFB0122002169
:100F9C002048FFF73DFB2E491E48FFF794FB00BF8E
:100FAC00FFF754FE0346002B00F00085184B0F2270
:100FBC001A70BB7D012B04D0022B00F0788200F05C
:100FCC00F2BC1448FFF796FB002200211148FFF7F2
:100FDC001FFB20490F48FFF776FB012200210D482B
:100FEC00FFF716FB1C490B48FFF76DFB01233B7504
:100FFC000123FB7441E2064B1B78002B2ED10548D4
:10100C00FFF778FB4FF47A7002F0C6FD01F0BEBD1D
:10101C00000000204001002088640008986400084B
:10102C00A8640008B8640008C8640008D864000804
:10103C00E8640008F86400080865000814650008F6
:10104C0020650008306500084C6400084065000805
:10105C0050650008586500086C650008FFF735FE00
:10106C000346002B00F08A80A44B0F221A703B7DA4
:10107C0001333B753B7D042B01D83B7D00E0002305
:10108C003B753B7D013B032B62D801A252F823F048
:10109C00AD100008D9100008051100083111000826
:1010AC009748FFF727FB002200219548FFF7B0FA7D
:1010BC0094499348FFF707FB012200219048FFF762
:1010CC00A7FA91498E48FFF7FEFA57E08C48FFF7D4
:1010DC0011FB002200218A48FFF79AFA8B498848B5
:1010EC00FFF7F1FA012200218548FFF791FA8849B0
:1010FC008348FFF7E8FA41E08148FFF7FBFA00224A
:10110C0000217F48FFF784FA82497D48FFF7DBFA1C
:10111C00012200217A48FFF77BFA7F497848FFF7D4
:10112C00D2FA2BE07648FFF7E5FA0022002174484A
:10113C00FFF76EFA79497248FFF7C5FA01220021D0
:10114C006F48FFF765FA76496D48FFF7BCFA15E072
:10115C006B48FFF7CFFA002200216948FFF758FAD5
:10116C006D496748FFF7AFFA012200216448FFF789
:10117C004FFA6C496248FFF7A6FA00BFFFF766FD0D
:10118C000346002B00F079815C4B0F221A70BB7D5B
:10119C001B01DAB23B7D1344BB703B7D013B032B3F
:1011AC0000F2688101A252F823F000BFC9110008B7
:1011BC006912000841130008E1130008BB781846B7
:1011CC0001F012FF0346002B2ED04D48FFF792FA88
:1011DC00002200214A48FFF71BFA53494848FFF701
:1011EC0072FA012200214648FFF712FA4F4944488F
:1011FC00FFF769FA4FF47A7002F0CEFC4048FFF723
:10120C0079FA002200213E48FFF702FA3D493C489A
:10121C00FFF759FA012200213948FFF7F9F93A4949
:10122C003748FFF750FA28E1BB78184601F064FD07
:10123C003348FFF75FFA002200213148FFF7E8F945
:10124C0030492F48FFF73FFA012200212C48FFF7C5
:10125C00DFF92D492A48FFF736FA0EE1BB7818461C
:10126C0001F0C2FE0346002B2ED02548FFF742FAB0
:10127C00002200212248FFF7CBF92D492048FFF727
:10128C0022FA012200211E48FFF7C2F927491C4807
:10129C00FFF719FA4FF47A7002F07EFC1848FFF74A
:1012AC0029FA002200211648FFF7B2F91749144811
:1012BC00FFF709FA012200211148FFF7A9F9144997
:1012CC000F48FFF700FAD8E0BB78184601F014FD80
:1012DC000B48FFF70FFA002200210948FFF798F995
:1012EC000A490748FFF7EFF9012200210448FFF7EC
:1012FC008FF907490248FFF7E6F9BEE0000000202D
:10130C0040010020586500086C65000880650008E5
:10131C0094650008A8650008BC650008D065000845
:10132C00E465000808650008F0650008F865000829
:10133C0004660008BB78184601F056FE0346002BE5
:10134C002ED0AC48FFF7D6F900220021A948FFF7B0
:10135C005FF9A949A748FFF7B6F901220021A54872
:10136C00FFF756F9A549A348FFF7ADF94FF47A708A
:10137C0002F012FC9F48FFF7BDF9002200219D48A6
:10138C00FFF746F99E499B48FFF79DF90122002182
:10139C009848FFF73DF99B499648FFF794F96CE0A4
:1013AC00BB78184601F0A8FC9248FFF7A3F900227D
:1013BC0000219048FFF72CF991498E48FFF783F9EB
:1013CC00012200218B48FFF723F98E498948FFF74A
:1013DC007AF952E0BB78184601F006FE0346002B62
:1013EC002ED08448FFF786F9002200218148FFF7B0
:1013FC000FF985497F48FFF766F9012200217D48E6
:10140C00FFF706F97D497B48FFF75DF94FF47A70D9
:10141C0002F0C2FB7748FFF76DF9002200217548F6
:10142C00FFF7F6F879497348FFF74DF901220021CF
:10143C007048FFF7EDF876496E48FFF744F91CE069
:10144C00BB78184601F058FC6A48FFF753F90022A4
:10145C0000216848FFF7DCF86C496648FFF733F960
:10146C00012200216348FFF7D3F869496148FFF76F
:10147C002AF902E00023FB7400BFFB7C012B3FF434
:10148C00BAAD5C48FFF736F9002200215948FFF746
:10149C00BFF860495748FFF716F90122002155485B
:1014AC00FFF7B6F85C495348FFF70DF97EE2514857
:1014BC00FFF720F9002200214E48FFF7A9F8574901
:1014CC004C48FFF700F9012200214A48FFF7A0F829
:1014DC0053494848FFF7F7F80123BB7401237B7489
:1014EC0047E2504B1B78002B08D14248FFF702F91A
:1014FC004FF47A7002F050FB01F048BBFFF7E5FBAC
:10150C000346002B00F0B080464B0F221A70BB7CB8
:10151C000133BB74BB7C042B01D8BB7C00E00023E3
:10152C00BB74BB7C013B032B00F2888001A252F8F8
:10153C0023F000BF511500087D150008A9150008FF
:10154C00D51500082B48FFF7D5F8002200212948B3
:10155C00FFF75EF831492748FFF7B5F80122002163
:10156C002448FFF755F82E492248FFF7ACF87BE0EA
:10157C002048FFF7BFF8002200211E48FFF748F86B
:10158C0029491C48FFF79FF8012200211948FFF751
:10159C003FF826491748FFF796F865E01548FFF71E
:1015AC00A9F8002200211348FFF732F8204911480E
:1015BC00FFF789F8012200210E48FFF729F81D4991
:1015CC000C48FFF780F84FE00A48FFF793F8002229
:1015DC0000210848FFF71CF817490648FFF773F875
:1015EC00012200210348FFF713F809490148FFF7CE
:1015FC006AF839E0400100200C660008F865000824
:10160C00A8650008BC65000814660008D0650008D1
:10161C00E465000820650008306500081C660008B9
:10162C003066000800000020446600085866000878
:10163C006C6600088066000894660008BA48FFF7DC
:10164C0059F800220021B848FEF7E2FFB749B64826
:10165C00FFF739F801220021B348FEF7D9FFB4494E
:10166C00B148FFF730F800BFFFF7F0FA0346002B44
:10167C0000F07F81AF4B0F221A70BB7D1B01DAB2D9
:10168C00BB7C1344FB70BB7C013B032B00F26E81D3
:10169C0001A252F823F000BFB51600085517000838
:1016AC00F517000895180008FB78184601F09CFC0B
:1016BC000346002B2ED09C48FFF71CF8002200217B
:1016CC009948FEF7A5FF9C499748FEF7FCFF0122BD
:1016DC0000219548FEF79CFF98499348FEF7F3FFCD
:1016EC004FF47A7002F058FA8F48FFF703F8002293
:1016FC0000218D48FEF78CFF91498B48FEF7E3FFE4
:10170C00012200218848FEF783FF8E498648FEF7A8
:10171C00DAFF2EE1FB78184601F0EEFA8248FEF76C
:10172C00E9FF002200218048FEF772FF84497E48C1
:10173C00FEF7C9FF012200217B48FEF769FF8149B2
:10174C007948FEF7C0FF14E1FB78184601F04CFC19
:10175C000346002B2ED07448FEF7CCFF002200214C
:10176C007148FEF755FF78496F48FEF7ACFF012230
:10177C0000216D48FEF74CFF70496B48FEF7A3FF44
:10178C004FF47A7002F008FA6748FEF7B3FF0022B4
:10179C0000216548FEF73CFF6C496348FEF793FF58
:1017AC00012200216048FEF733FF69495E48FEF7CD
:1017BC008AFFDEE0FB78184601F09EFA5A48FEF7E5
:1017CC0099FF002200215848FEF722FF5F49564836
:1017DC00FEF779FF012200215348FEF719FF5C49FF
:1017EC005148FEF770FFC4E0FB78184601F0FCFB93
:1017FC000346002B2ED04C48FEF77CFF0022002124
:10180C004948FEF705FF53494748FEF75CFF0122A4
:10181C0000214548FEF7FCFE48494348FEF753FFBC
:10182C004FF47A7002F0B8F93F48FEF763FF0022DC
:10183C0000213D48FEF7ECFE47493B48FEF743FFCD
:10184C00012200213848FEF7E3FE38493648FEF7FE
:10185C003AFF8EE0FB78184601F04EFA3248FEF75C
:10186C0049FF002200213048FEF7D2FE3A492E48AB
:10187C00FEF729FF012200212B48FEF7C9FE2B4958
:10188C002948FEF720FF74E0FB78184601F0ACFB0A
:10189C000346002B2ED02448FEF72CFF00220021FB
:1018AC002148FEF7B5FE2D491F48FEF70CFF01221B
:1018BC0000211D48FEF7ACFE20491B48FEF703FF34
:1018CC004FF47A7002F068F91748FEF713FF002204
:1018DC0000211548FEF79CFE21491348FEF7F3FE44
:1018EC00012200211048FEF793FE1E490E48FEF718
:1018FC00EAFE3EE0FB78184601F0FEF90A48FEF7D6
:10190C00F9FE002200210848FEF782FE164906481F
:10191C00FEF7D9FE012200210348FEF779FE11499A
:10192C000148FEF7D0FE24E040010020806600084C
:10193C000865000800000020A8660008F86500088B
:10194C001C66000830660008B06600084466000893
:10195C0058660008B86600086C660008C066000887
:10196C00C8660008E46500089466000800237B74D0
:10197C0000BF7B7C012B3FF4B4ADB948FEF7BAFE37
:10198C0000220021B648FEF743FEB649B448FEF7E4
:10199C009AFE01220021B248FEF73AFEB249B04845
:1019AC00FEF791FE02E000237B7500BF7B7D012BCF
:1019BC003FF48FAAAA48FEF79DFE00220021A848FA
:1019CC00FEF726FEA949A648FEF77DFE012200215E
:1019DC00A348FEF71DFEA649A148FEF774FE01F0D0
:1019EC00C9B89F48FEF786FE002200219C48FEF7EE
:1019FC000FFEA0499A48FEF766FE01220021984886
:101A0C00FEF706FE9C499648FEF75DFEFF233B74ED
:101A1C000123FB7301F078B8984B1B78002B08D18D
:101A2C008F48FEF767FE4FF47A7002F0B5F801F0BC
:101A3C00ADB8FFF74AF90346002B54D08F4B0F2259
:101A4C001A703B7C01333B743B7C022B01D83B7CF2
:101A5C0000E000233B743B7C002B02D0012B16D002
:101A6C002BE07F48FEF746FE002200217C48FEF763
:101A7C00CFFD83497A48FEF726FE012200217848E3
:101A8C00FEF7C6FD7F497648FEF71DFE2BE0744835
:101A9C00FEF730FE002200217148FEF7B9FD7A49AD
:101AAC006F48FEF710FE012200216D48FEF7B0FDD5
:101ABC0076496B48FEF707FE15E06948FEF71AFEFB
:101ACC00002200216648FEF7A3FD6E496448FEF72C
:101ADC00FAFD012200216248FEF79AFD6C4960482C
:101AEC00FEF7F1FD00BFFFF7B1F80346002B01F044
:101AFC000B80624B0F221A703B7C002B04D0012B05
:101B0C0000F0F78700F0FDBF5548FEF7F3FD00220B
:101B1C0000215348FEF77CFD5E495148FEF7D3FD8A
:101B2C00012200214E48FEF773FD5B494C48FEF73D
:101B3C00CAFD0023BB7301237B7300F0C0BF4F4B66
:101B4C001B78002B08D14648FEF7D4FD4FF47A7071
:101B5C0002F022F801F01AB8FFF7B7F80346002B91
:101B6C0051D0BB7B0133BB73BB7B022B01D8BB7B3E
:101B7C0000E00023BB73BB7B002B02D0012B16D0E3
:101B8C002BE03748FEF7B6FD002200213448FEF763
:101B9C003FFD40493248FEF796FD012200213048B6
:101BAC00FEF736FD3C492E48FEF78DFD2BE02C4808
:101BBC00FEF7A0FD002200212948FEF729FD374938
:101BCC002748FEF780FD012200212548FEF720FD65
:101BDC0033492348FEF777FD15E02148FEF78AFDCF
:101BEC00002200211E48FEF713FD2B491C48FEF76E
:101BFC006AFD012200211A48FEF70AFD2449184803
:101C0C00FEF761FD00BFFFF721F80346002B00F043
:101C1C0056871A4B0F221A70BB7B002B04D0012B5A
:101C2C0000F0998600F048BF0D48FEF763FD0022D6
:101C3C0000210B48FEF7ECFC1A490948FEF743FD5E
:101C4C00012200210648FEF7E3FC17490448FEF781
:101C5C003AFD01233B730123FB7200F062BE00BF0F
:101C6C00400100204C64000840650008A86400088E
:101C7C00B8640008D46600089864000800000020CE
:101C8C00E4660008F466000804670008146700089E
:101C9C005065000824670008346700084467000892
:101CAC00546700082065000830650008A74B1B78B6
:101CBC00002B08D1A648FEF71DFD4FF47A7001F0F9
:101CCC006BFF00F063BFFFF700F80346002B54D006
:101CDC009E4B0F221A703B7B01333B733B7B022BD9
:101CEC0001D83B7B00E000233B733B7B012B02D0F4
:101CFC00022B16D02BE09648FEF7FCFC00220021AC
:101D0C009348FEF785FC93499148FEF7DCFC0122D1
:101D1C0000218F48FEF77CFC8F498D48FEF7D3FCE1
:101D2C002BE08B48FEF7E6FC002200218848FEF7EA
:101D3C006FFC89498648FEF7C6FC012200218448C5
:101D4C00FEF766FC83498248FEF7BDFC15E080482F
:101D5C00FEF7D0FC002200217D48FEF759FC7E499D
:101D6C007B48FEF7B0FC012200217948FEF750FCBD
:101D7C007A497748FEF7A7FC00BFFEF767FF0346DA
:101D8C00002B00F0CE85714B0F221A703B7B012B80
:101D9C0004D0022B00F0F38200F0C0BD6C48FEF7BB
:101DAC00A9FC002200216A48FEF732FC6C49684805
:101DBC00FEF789FC012200216548FEF729FC6949E0
:101DCC006348FEF780FC0123BB7201237B72BCE2EB
:101DDC005E4B1B78002B08D15D48FEF78BFC4FF453
:101DEC007A7001F0D9FE00F0D1BEFEF76EFF03460B
:101DFC00002B00F08B80554B0F221A70BB7A0133ED
:101E0C00BB72BB7A042B01D8BB7A00E00023BB72F7
:101E1C00BB7A013B032B63D801A252F823F000BF1D
:101E2C003D1E0008691E0008951E0008C11E000812
:101E3C004748FEF75FFC002200214548FEF7E8FB0F
:101E4C0047494348FEF73FFC012200214048FEF77A
:101E5C00DFFB44493E48FEF736FC57E03C48FEF7B2
:101E6C0049FC002200213A48FEF7D2FB3E49384893
:101E7C00FEF729FC012200213548FEF7C9FB3B493E
:101E8C003348FEF720FC41E03148FEF733FC0022DA
:101E9C0000212F48FEF7BCFB35492D48FEF713FCFB
:101EAC00012200212A48FEF7B3FB32492848FEF7ED
:101EBC000AFC2BE02648FEF71DFC002200212448DA
:101ECC00FEF7A6FB2C492248FEF7FDFB0122002160
:101EDC001F48FEF79DFB29491D48FEF7F4FB15E052
:101EEC001B48FEF707FC002200211948FEF790FB67
:101EFC0020491748FEF7E7FB012200211448FEF7A2
:101F0C0087FB1F491248FEF7DEFB00BFFEF79EFE63
:101F1C000346002B00F019820C4B0F221A703B7BEE
:101F2C001B01DAB2BB7A13443B71BB7A013B032B26
:101F3C0000F2088201A252F823F000BF911F0008A2
:101F4C006F2000084D2100082B2200080000002003
:101F5C0040010020206500084C6400085065000812
:101F6C00586500086C6500088065000894650008D9
:101F7C00A8650008BC650008D0650008E465000889
:101F8C00086500083B79184601F02EF80346002B33
:101F9C0025D1B948FEF7AEFB00220021B648FEF76A
:101FAC0037FBB649B448FEF78EFB4FF47A7001F05C
:101FBC00F3FDB148FEF79EFB00220021AE48FEF770
:101FCC0027FBAF49AC48FEF77EFB01220021AA4853
:101FDC00FEF71EFBAB49A848FEF775FBB5E13B7954
:101FEC00184601F001F80346184601F02BF8A248F8
:101FFC00FEF780FB002200219F48FEF709FBA24957
:10200C009D48FEF760FB012200219B48FEF700FB78
:10201C009E499948FEF757FB4FF47A7001F0BCFDCE
:10202C0000F038FE0346002B05D101F019F8984B4F
:10203C0000221A7089E19048FEF75CFB0022002117
:10204C008D48FEF7E5FA8E498B48FEF73CFB0122E2
:10205C0000218948FEF7DCFA8A498748FEF733FBF2
:10206C0073E13B79184600F0BFFF0346002B25D1E6
:10207C008148FEF73FFB002200217F48FEF7C8FA9B
:10208C0084497D48FEF71FFB4FF47A7001F084FD04
:10209C007948FEF72FFB002200217748FEF7B8FAAB
:1020AC007D497548FEF70FFB012200217248FEF7AF
:1020BC00AFFA7A497048FEF706FB46E13B791846C1
:1020CC0000F092FF0346184600F0BCFF6A48FEF78A
:1020DC0011FB002200216848FEF79AFA7049664805
:1020EC00FEF7F1FA012200216348FEF791FA6749E5
:1020FC006148FEF7E8FA4FF47A7001F04DFD00F0FC
:10210C00C9FD0346002B05D100F0AAFF604B00224D
:10211C001A701AE15848FEF7EDFA002200215648D1
:10212C00FEF776FA5C495448FEF7CDFA01220021FD
:10213C005148FEF76DFA59494F48FEF7C4FA04E1CD
:10214C003B79184600F050FF0346002B25D14A4836
:10215C00FEF7D0FA002200214748FEF759FA514900
:10216C004548FEF7B0FA4FF47A7001F015FD42487D
:10217C00FEF7C0FA002200213F48FEF749FA4A490F
:10218C003D48FEF7A0FA012200213B48FEF740FA39
:10219C0046493948FEF797FAD7E03B79184600F0E4
:1021AC0023FF0346184600F04DFF3348FEF7A2FA12
:1021BC00002200213048FEF72BFA3D492E48FEF74D
:1021CC0082FA012200212C48FEF722FA2F492A48D4
:1021DC00FEF779FA4FF47A7001F0DEFC00F05AFD4C
:1021EC000346002B05D100F03BFF294B00221A704F
:1021FC00ABE02148FEF77EFA002200211E48FEF7D4
:10220C0007FA29491C48FEF75EFA012200211A48F8
:10221C00FEF7FEF925491848FEF755FA95E03B798B
:10222C00184600F0E1FE0346002B49D11248FEF798
:10223C0061FA002200211048FEF7EAF91D490E4808
:10224C00FEF741FA4FF47A7001F0A6FC0A48FEF74B
:10225C0051FA002200210848FEF7DAF9164906481F
:10226C00FEF731FA012200210348FEF7D1F9134998
:10227C000148FEF728FA68E0400100206467000876
:10228C00586500086C650008786700088C670008C2
:10229C00000000209C670008806500089465000819
:1022AC00B0670008C4670008A8650008BC65000892
:1022BC00D8670008EC670008D0650008E4650008E2
:1022CC003B79184600F090FE0346184600F0BAFE23
:1022DC00AD48FEF70FFA00220021AB48FEF798F943
:1022EC00AA49A948FEF7EFF901220021A648FEF7FA
:1022FC008FF9A749A448FEF7E6F94FF47A7001F07C
:10230C004BFC00F0C7FC0346002B05D100F0A8FEE7
:10231C00A04B00221A7018E09B48FEF7EBF9002244
:10232C0000219948FEF774F99B499748FEF7CBF9C1
:10233C00012200219448FEF76BF998499248FEF768
:10234C00C2F902E000237B7200BF7B7A012B3FF4C1
:10235C003FAD8D48FEF7CEF9002200218A48FEF7EA
:10236C0057F98F498848FEF7AEF9012200218648BB
:10237C00FEF74EF98B498448FEF7A5F9D1E2824865
:10238C00FEF7B8F9002200217F48FEF741F9864993
:10239C007D48FEF798F9012200217B48FEF738F9B9
:1023AC0082497948FEF78FF901233B720123FB71B7
:1023BC0074E2784B1B78002B07D17348FEF79AF91F
:1023CC004FF47A7001F0E8FBE0E3FEF77EFC034685
:1023DC00002B00F08B806F4B0F221A703B7A01336D
:1023EC003B723B7A042B01D83B7A00E000233B7212
:1023FC003B7A013B032B63D801A252F823F000BFB8
:10240C001D2400084924000875240008A124000894
:10241C005D48FEF76FF9002200215B48FEF7F8F8E3
:10242C0063495948FEF74FF9012200215648FEF73F
:10243C00EFF85E495448FEF746F957E05248FEF76C
:10244C0059F9002200215048FEF7E2F859494E484C
:10245C00FEF739F9012200214B48FEF7D9F856490D
:10246C004948FEF730F941E04748FEF743F90022AE
:10247C0000214548FEF7CCF850494348FEF723F9B4
:10248C00012200214048FEF7C3F84D493E48FEF7B3
:10249C001AF92BE03C48FEF72DF9002200213A48AE
:1024AC00FEF7B6F847493848FEF70DF9012200212E
:1024BC003548FEF7ADF839493348FEF704F915E015
:1024CC003148FEF717F9002200212F48FEF7A0F83B
:1024DC003B492D48FEF7F7F8012200212A48FEF768
:1024EC0097F839492848FEF7EEF800BFFEF7AEFB27
:1024FC000346002B00F0D281264B0F221A703B7B37
:10250C001B01DAB23B7A13447B713B7A013B032B00
:10251C0000F2C18101A252F823F000BF3925000856
:10252C004B26000813270008DB2700087B79184688
:10253C0000F05AFD0346002B4AD11348FEF7DAF897
:10254C00002200211048FEF763F820490E48FEF7E0
:10255C00BAF84FF47A7001F01FFB0B48FEF7CAF87B
:10256C00002200210848FEF753F811490648FEF7EF
:10257C00AAF8012200210448FEF74AF80B49024848
:10258C00FEF7A1F88AE100BF4001002000680008B6
:10259C008C67000800000020D0650008E465000886
:1025AC0020650008306500081468000830660008D3
:1025BC001C66000844660008586600086C66000833
:1025CC008066000894660008086500082468000806
:1025DC007B79184600F008FD0346184600F032FDE2
:1025EC00BB48FEF787F800220021B948FEF710F827
:1025FC00B849B748FEF767F801220021B448FEF746
:10260C0007F8B549B248FEF75EF84FF47A7001F05E
:10261C00C3FAAF48FEF76EF800220021AC48FDF774
:10262C00F7FFAE49AA48FEF74EF801220021A84850
:10263C00FDF7EEFFAA49A648FEF745F82EE17B7997
:10264C00184600F0D1FC0346002B25D1A048FEF71C
:10265C0051F8002200219E48FDF7DAFFA1499C4861
:10266C00FEF731F84FF47A7001F096FA9848FEF7BD
:10267C0041F8002200219648FDF7CAFF9A49944878
:10268C00FEF721F8012200219148FDF7C1FF97497F
:10269C008F48FEF718F801E17B79184600F0A4FC8E
:1026AC000346184600F0CEFC8948FEF723F80022BA
:1026BC0000218748FDF7ACFF8D498548FEF703F8EC
:1026CC00012200218248FDF7A3FF83498048FDF7D2
:1026DC00FAFF4FF47A7001F05FFA7D48FEF70AF8C2
:1026EC00002200217A48FDF793FF7F497848FDF7D7
:1026FC00EAFF012200217648FDF78AFF7B497448E6
:10270C00FDF7E1FFCAE07B79184600F06DFC03464B
:10271C00002B25D16E48FDF7EDFF002200216C48FF
:10272C00FDF776FF73496A48FDF7CDFF4FF47A70D9
:10273C0001F032FA6648FDF7DDFF00220021644803
:10274C00FDF766FF6C496248FDF7BDFF01220021D1
:10275C005F48FDF75DFF69495D48FDF7B4FF9DE0FB
:10276C007B79184600F040FC0346184600F06AFCE2
:10277C005748FDF7BFFF002200215548FDF748FFE1
:10278C005F495348FDF79FFF012200215048FDF798
:10279C003FFF51494E48FDF796FF4FF47A7001F018
:1027AC00FBF94B48FDF7A6FF002200214848FDF736
:1027BC002FFF51494648FDF786FF0122002144486E
:1027CC00FDF726FF4D494248FDF77DFF66E07B791A
:1027DC00184600F009FC0346002B25D13C48FDF7B8
:1027EC0089FF002200213A48FDF712FF454938487D
:1027FC00FDF769FF4FF47A7001F0CEF93448FDF71C
:10280C0079FF002200213248FDF702FF3E49304893
:10281C00FDF759FF012200212D48FDF7F9FE3B4938
:10282C002B48FDF750FF39E07B79184600F0DCFBB4
:10283C000346184600F006FC2548FDF75BFF002216
:10284C0000212348FDF7E4FE31492148FDF73BFF09
:10285C00012200211E48FDF7DBFE1F491C48FDF735
:10286C0032FF4FF47A7001F097F91948FDF742FFE7
:10287C00002200211648FDF7CBFE23491448FDF732
:10288C0022FF012200211248FDF7C2FE1F49104809
:10289C00FDF719FF02E00023FB7100BFFB79012B50
:1028AC003FF487AD0A48FDF725FF002200210848B8
:1028BC00FDF7AEFE17490648FDF705FF0122002182
:1028CC000348FDF7A5FE14490148FDF7FCFE28E07E
:1028DC0040010020786700088C6700081C6600081F
:1028EC00306600083868000844660008586600081E
:1028FC00B06700084C6800086C6600088066000829
:10290C00D86700086068000894660008E465000851
:10291C00006800084C640008406500080023FB7246
:10292C0000BFFB7A012B3FF4C1A99A48FDF7E2FEE8
:10293C00002200219748FDF76BFE97499548FDF75B
:10294C00C2FE012200219348FDF762FE9349914893
:10295C00FDF7B9FEB3E08F48FDF7CCFE0022002155
:10296C008C48FDF755FE8E498A48FDF7ACFE0122D6
:10297C0000218848FDF74CFE8A498648FDF7A3FEE6
:10298C000123BB717EE0884800F014FD0346002B48
:10299C0071D1854800F04EF90346002B46D0824891
:1029AC0000F048F90346184600F01EFB0346184693
:1029BC0000F048FB7748FDF79DFE0022002175488A
:1029CC00FDF726FE79497348FDF77DFE01220021B3
:1029DC007048FDF71DFE76496E48FDF774FE4FF406
:1029EC007A7001F0D9F800F055F90346002B07D1A5
:1029FC0000F036FB0123BB716E4B00221A70C5E050
:102A0C006448FDF777FE002200216248FDF700FEC6
:102A1C0063496048FDF757FE012200215D48FDF730
:102A2C00F7FD60495B48FDF74EFE24E05948FDF781
:102A3C0061FE002200215748FDF7EAFD5E4955482A
:102A4C00FDF741FE4FF47A7001F0A6F85148FDF7FE
:102A5C0051FE002200214F48FDF7DAFD50494D4848
:102A6C00FDF731FE012200214A48FDF7D1FD4D4909
:102A7C004848FDF728FEFEF7E9F80346012B01D183
:102A8C000023BB71BB79002B7FF47DAF4148FDF770
:102A9C0031FE002200213F48FDF7BAFD47493D4871
:102AAC00FDF711FE012200213A48FDF7B1FD444922
:102ABC003848FDF708FE02E000237B7300BF7B7BE8
:102ACC00012B3FF43CA83348FDF714FE00220021F3
:102ADC003048FDF79DFD3B492E48FDF7F4FD0122E2
:102AEC0000212C48FDF794FD37492A48FDF7EBFDF2
:102AFC000AE000F0F1FB00F0B3FA2E4B00221A7042
:102B0C0002E00023FB7300BFFB7B012B3EF484AF80
:102B1C002048FDF7EFFD002200211E48FDF778FD4F
:102B2C002A491C48FDF7CFFD012200211948FDF769
:102B3C006FFD27491748FDF7C6FD1BE000F068F94B
:102B4C001448FDF7D7FD002200211248FDF760FD67
:102B5C0020491048FDF7B7FD012200210D48FDF773
:102B6C0057FD1D490B48FDF7AEFD03E0114B00224C
:102B7C001A7000BF0F4B1B78002B7EF404A905487C
:102B8C00FDF7B8FD4FF47A7001F006F81837BD4622
:102B9C0080BD00BF40010020246700083467000896
:102BAC00746800080865000830010020806800087F
:102BBC008C67000800000020946800084467000837
:102BCC0054670008E4660008F4660008C86400084E
:102BDC00D8640008B8640008E864000880B586B0C2
:102BEC0000AF7860396007F10C0308221946386889
:102BFC00FDF722FBBB7CFF2B01D0002316E000234A
:102C0C00FB750FE0FB7D7A6813441A78FB7D183353
:102C1C003B4413F80C3C9A4201D0002306E0FB7DA8
:102C2C000133FB75FB7D042BECD9012318461837B7
:102C3C00BD4680BD80B584B000AF7860144BFB609E
:102C4C0018E0FB6806331846FDF7DDFA03461A4612
:102C5C004FF6FF739A420AD1F9687868FFF7BEFF06
:102C6C000346012B03D1FB6805331B780BE0FB6893
:102C7C000833FB60FB6805331846FDF7B8FA0346CA
:102C8C00FF2BDED1002318461037BD4680BD00BF98
:102C9C0000A0000880B582B000AF164B7B6000230B
:102CAC00FB701AE07B6806331846FDF7ACFA034656
:102CBC001A464FF6FF739A420CD17B6805331846BF
:102CCC00FDF795FA03461B09DBB2012B02D1FB7809
:102CDC000133FB707B6808337B607B6805331846D7
:102CEC00FDF785FA0346FF2BDCD1FB781846083735
:102CFC00BD4680BD00A0000880B582B000AF034681
:102D0C00FB7100F035FA3A48FDF7F4FC0022002183
:102D1C003748FDF77DFC37493548FDF7D4FC0122D7
:102D2C0000213348FDF774FC33493148FDF7CBFCE7
:102D3C0055E0324800F03EFB0346002B4AD12F48A9
:102D4C00FFF778FF0346002B1FD12C4AFB795371F8
:102D5C002B4B1B68062229491846FDF725FA284BF0
:102D6C001B680833264A13602148FDF7C3FC002278
:102D7C0000211F48FDF74CFC22491D48FDF7A3FC20
:102D8C004FF47A7000F008FF2FE01948FDF7B2FC01
:102D9C00002200211648FDF73BFC1B491448FDF7A7
:102DAC0092FC4FF47A7000F0F7FE1148FDF7A2FC8C
:102DBC00002200210E48FDF72BFC0E490C48FDF7B4
:102DCC0082FC012200210A48FDF722FC0A4908482E
:102DDC00FDF779FCFDF73AFF0346012B04D00B4BB2
:102DEC001B78002BA5D100E000BF0837BD4680BD85
:102DFC0040010020746800080865000830010020BC
:102E0C0004000020A8680008B46800080000002036
:102E1C0080B582B000AF684B1E221A706748FDF770
:102E2C0069FC002200216548FDF7F2FB6449634808
:102E3C00FDF749FC012200216048FDF7E9FB6149DF
:102E4C005E48FDF740FCACE05F4800F0B3FA034687
:102E5C00002B40F0A1805C48FFF7ECFE0346002BF2
:102E6C0029D15648FDF746FC002200215348FDF7B6
:102E7C00CFFB56495148FDF726FC4FF47A7000F011
:102E8C008BFE4E48FDF736FC002200214B48FDF727
:102E9C00BFFB4B494948FDF716FC0122002147486E
:102EAC00FDF7B6FB47494548FDF70DFC4FF47A702A
:102EBC0000F072FE70E04448FFF7BCFE0346FB7165
:102ECC00FB7903F00F03BB71FB791B097B713B484A
:102EDC00FDF710FC7B79012B09D10022002137482A
:102EEC00FDF796FB3A493548FDF7EDFB09E000226A
:102EFC0000213248FDF78CFB36493048FDF7E3FBE7
:102F0C0000BFBB79032B1AD0032B22DC012B02D080
:102F1C00022B0AD01DE0012200212848FDF778FB86
:102F2C002D492648FDF7CFFB1DE001220021234847
:102F3C00FDF76EFB29492148FDF7C5FB13E0012283
:102F4C0000211E48FDF764FB25491C48FDF7BBFB1F
:102F5C0009E0012200211948FDF75AFB21491748C5
:102F6C00FDF7B1FB00BF4FF47A7000F015FE13486B
:102F7C00FDF7C0FB002200211048FDF749FB10496A
:102F8C000E48FDF7A0FB012200210C48FDF740FB89
:102F9C000C490A48FDF797FBFDF758FE0346012B39
:102FAC0005D0054B1B78002B7FF44EAF00E000BF23
:102FBC000837BD4680BD00BF000000204001002046
:102FCC00746800080865000830010020C468000817
:102FDC00D4680008E0680008EC680008F468000891
:102FEC00FC6800080469000880B584B000AF034693
:102FFC00FB71134BFB6015E0FB6806331846FDF7BD
:10300C0002F903461A464FF6FF739A4207D1FB6842
:10301C0005331B78FA799A4201D1FB680BE0FB6807
:10302C000833FB60FB6805331846FDF7E0F80346F0
:10303C00FF2BE1D1002318461037BD4680BD00BFE1
:10304C0000A0000880B582B000AF78607B680633C2
:10305C0000211846FDF790F800BF0837BD4680BD2B
:10306C0080B500AF3B48FDF745FB002200213948F5
:10307C00FDF7CEFA38493748FDF725FB0122002130
:10308C003448FDF7C5FA35493248FDF71CFB00F012
:10309C006FF8334800F08EF90346002BF9D1304815
:1030AC00FFF7C8FD0346002B0FD12D4B11225A718F
:1030BC002C4B1B6806222A491846FDF775F8294B3C
:1030CC001B680833274A136025E02248FDF712FBE2
:1030DC00002200211F48FDF79BFA23491D48FDF7EC
:1030EC00F2FA4FF47A7000F057FD1A48FDF702FB24
:1030FC00002200211748FDF78BFA17491548FDF7F8
:10310C00E2FA012200211348FDF782FA1349114813
:10311C00FDF7D9FABDE70F48FDF7ECFA00220021C4
:10312C000C48FDF775FA11490A48FDF7CCFA012253
:10313C0000210848FDF76CFA08490648FDF7C3FA68
:10314C004FF47A7000F028FD0248FDF7D3FA00BF67
:10315C0080BD00BF4001002074680008D4680008DE
:10316C003001002004000020B46800080C6900083D
:10317C0080B582B000AF0A4B7B6002E07B680833FD
:10318C007B607B6805331846FDF731F80346FF2B4F
:10319C00F4D1044A7B68136000BF0837BD4680BD7C
:1031AC0000A000080400002080B586B000AF4548A0
:1031BC00FDF7A0FA002200214248FDF729FA424906
:1031CC004048FDF780FA414B78221A70FF237B6050
:1031DC0007F1080300221A605A609A600023FB75FD
:1031EC004FF47A7000F0D8FCFB7D0122194635486B
:1031FC00FDF70EFA5F213348FDF734FA58E0FDF77E
:10320C0083F803467B757B7D232B51D07B7D2A2B4A
:10321C004ED07B7D002B4BD0FB7D012219462948DB
:10322C00FDF7F6F92A212748FDF71CFAFB7D183328
:10323C003B447A7D03F8142CFB7D0133FB75FB7D3D
:10324C00062B25D10023BB750CE0BB7D18333B440A
:10325C0013F8142CBB7D1E49CB5C9A422DD1BB7D3F
:10326C000133BB75BB7D052BEFD91648FDF742FA30
:10327C00002200211348FDF7CBF916491148FDF740
:10328C0022FA41F2883000F087FC104B00221A70B1
:10329C00FB7D012219460B48FDF7BAF95F2109485D
:1032AC00FDF7E0F900BFFDF72FF80346002BFAD12C
:1032BC00064B1B78002BA2D100E000BF1837BD468F
:1032CC0080BD00BF400100201C69000800000020E8
:1032DC00080000206C64000880B582B000AF0B4B76
:1032EC007B6002E07868FCF72BFF7868FCF797FFAF
:1032FC0002460B46B3F1FF3F08BFB2F1FF3FF1D1DD
:10330C0000BF00BF0837BD4680BD00BF00A000084D
:10331C0080B400AF72B600BFFEE7000080B586B087
:10332C0002AF0346FB71FB793B7300BF0E4B1B686E
:10333C009B6803F00203022BF8D107F1080207F196
:10334C000C010A2300930123074802F0F7F900BF90
:10335C00054B1B689B6803F08003802BF8D03B7AED
:10336C0018461037BD4680BD9000002080B500AFD8
:10337C0000F0D5F88D212A2000F036F83E212B20C4
:10338C0000F032F81E212D2000F02EF800212C2008
:10339C0000F02AF87021262000F026F84021152094
:1033AC0000F022F83D21112000F01EF800F0A2F8E8
:1033BC0000BF80BD80B584B000AF786079682620EE
:1033CC0000F0B5F80346FB73FB7B002B04D1786847
:1033DC0000F0A1F90346FB7300F023FAFB7B1846BF
:1033EC001037BD4680BD000080B582B000AF0346EB
:1033FC000A46FB711346BB71002210210C4801F0E8
:10340C0098F8FB795B00DBB203F07E03DBB2184665
:10341C00FFF784FFBB791846FFF780FF01221021CC
:10342C00034801F086F800BF0837BD4680BD00BFD9
:10343C000008014080B584B000AF0346FB71002248
:10344C0010210F4801F075F8FB795B005BB203F0BB
:10345C007E035BB263F07F035BB2DBB21846FFF70F
:10346C005DFF0020FFF75AFF0346FB73012210217A
:10347C00034801F05EF8FB7B18461037BD4680BD53
:10348C000008014080B582B000AF03460A46FB71CC
:10349C001346BB71FB791846FFF7CCFF03461A465F
:1034AC00BB791343DAB2FB7911461846FFF79CFF40
:1034BC0000BF0837BD4680BD80B582B000AF034663
:1034CC000A46FB711346BB71FB791846FFF7B2FF36
:1034DC0003465AB297F90630DB435BB213405BB23A
:1034EC00DAB2FB7911461846FFF77EFF00BF0837AA
:1034FC00BD4680BD80B582B000AF1420FFF79AFFA7
:10350C000346FB71FB7903F00303002B03D103216A
:10351C001420FFF7B7FF00BF0837BD4680BD80B54C
:10352C0000AF0F210120FFF75FFF00BF80BD80B50A
:10353C0086B002AF03463960FB7107210D20FFF7FF
:10354C0053FF3B68FA791A7007F10C0300933B6840
:10355C00012239680C2000F00FF80346FB73FB7B4B
:10356C00002B02D1BB89102B01D00223FB73FB7BF8
:10357C0018461037BD4680BD90B587B000AFB96016
:10358C007B600346FB731346BB730223FB7500235E
:10359C00BB7500237B75FB7B0C2B06D00E2B09D146
:1035AC001223BB7510237B7505E07723BB75302385
:1035BC007B7500E000BFBB7D63F07F03DBB2194677
:1035CC000220FFF711FF80210420FFF775FF8021F7
:1035DC000A20FFF757FF00210120FFF705FF00230A
:1035EC007B820AE07B8ABA6813441B78194609204F
:1035FC00FFF7FAFE7B8A01337B82BB7B9BB27A8A14
:10360C009A42EFD3FB7B19460120FFF7EDFEFB7BC3
:10361C000C2B03D180210D20FFF734FF4FF4FA63FC
:10362C007B820420FFF706FF03463B757B8A013B38
:10363C007B827B8A002B0AD03B7D03F00103002B9D
:10364C0005D13A7D7B7D1340DBB2002BE9D0802184
:10365C000D20FFF731FF7B8A002B57D00620FFF798
:10366C00E9FE034603F01B03002B4DD10023FB7531
:10367C003A7DBB7D1340DBB203F00103002B01D07C
:10368C000123FB75FB7B0C2B40D10A20FFF7D2FEEC
:10369C0003463B750C20FFF7CDFE034603F00703F2
:1036AC007B747B7C002B0BD03B7D013B9BB2DB0006
:1036BC009AB27B7C9BB213449AB2BB6A1A8005E027
:1036CC003B7D9BB2DB009AB2BB6A1A803B7D002B20
:1036DC0001D101233B753B7D102B01D910233B7588
:1036EC0000237B820AE07B8A7A68D4180920FFF7D2
:1036FC00A1FE034623707B8A01337B823B7D9BB208
:10370C007A8A9A42EFD301E00223FB75FB7D1846BF
:10371C001C37BD4690BD80B586B002AF78600023E3
:10372C007B7300210D20FFF75FFE7B6893221A70DC
:10373C007B68013320221A7007F10A0300937B681F
:10374C00022279680C20FFF717FF0346FB73FB7B03
:10375C00002B18D10023BB7309E0BB7B7A681344A0
:10376C001A787B7B53407B73BB7B0133BB73BB7B76
:10377C00032BF2D9BB7B7A6813441B787A7B9A4271
:10378C0001D00223FB73FB7B18461037BD4680BD6E
:10379C0090B587B000AFF8600B467A60FB720421DD
:1037AC000520FFF789FE80210A20FFF76BFE00231E
:1037BC00FB750AE0FB7DFA6813441B781946092057
:1037CC00FFF712FEFB7D0133FB75FA7DFB7A9A4203
:1037DC00F0D303210120FFF707FEFF23FB75052023
:1037EC00FFF728FE0346BB75FB7D013BFB75FB7D9C
:1037FC00002B04D0BB7D03F00403002BEFD0222060
:10380C00FFF718FE03461A467B681A707B685C1C2F
:10381C002120FFF70FFE0346237000BF1C37BD4667
:10382C0090BD80B584B002AF50233B7000237B70F9
:10383C003B469A1C3B4602211846FFF7A9FF3A4625
:10384C003946BB1D0093134604220C20FFF794FE4F
:10385C0000BF0837BD4680BD80B485B000AF154BA6
:10386C009B69144A43F001039361124B9B6903F06B
:10387C000103BB60BB680F4BDB690E4A43F08053FE
:10388C00D3610C4BDB6903F080537B607B680A4B84
:10389C005B68FB60FB6823F0E063FB60FB6843F054
:1038AC000073FB60044AFB68536000BF1437BD46CD
:1038BC0080BC7047001002400000014080B588B009
:1038CC0000AF786007F1100300221A605A609A600A
:1038DC00DA607B681B68164A934224D1154B9B69AE
:1038EC00144A43F008039361124B9B6903F00803DD
:1038FC00FB60FB684FF440633B6112237B61032345
:10390C00FB6107F1100319460B4800F077FC094BDB
:10391C00DB69084A43F48003D361064BDB6903F48B
:10392C008003BB60BB6800BF2037BD4680BD00BFB5
:10393C000058004000100240000C014080B588B0D7
:10394C0000AF786007F1100300221A605A609A6089
:10395C00DA607B681B681B4A93422FD11A4B9B6918
:10396C00194A43F480539361174B9B6903F48053BA
:10397C00FB60FB68144B9B69134A43F0040393618F
:10398C00114B9B6903F00403BB60BB68A0233B6134
:10399C0002237B610323FB6107F1100319460B48DB
:1039AC0000F02CFC40233B6100237B610023BB61B6
:1039BC0007F110031946054800F020FC00BF203722
:1039CC00BD4680BD0030014000100240000801409F
:1039DC0080B584B000AF78607B681B68B3F1804F12
:1039EC0013D10C4BDB690B4A43F00103D361094B38
:1039FC00DB6903F00103FB60FB68002200211C2043
:103A0C0000F0C5F91C2000F0DEF900BF1037BD46F0
:103A1C0080BD00BF0010024080B400AFFEE780B450
:103A2C0000AFFEE780B400AFFEE780B400AFFEE766
:103A3C0080B400AFFEE780B400AF00BFBD4680BCD1
:103A4C00704780B400AF00BFBD4680BC704780B4E7
:103A5C0000AF00BFBD4680BC704780B500AF00F022
:103A6C007FF800BF80BD000080B500AF024802F0B7
:103A7C004FF900BF80BD00BFE800002080B400AF4C
:103A8C0000BFBD4680BC70470C480D490D4A002351
:103A9C0002E0D458C4500433C4188C42F9D30A4AF7
:103AAC000A4C002301E013600432A242FBD3FFF75F
:103ABC00E5FF02F08DFCFCF751FE70470000002082
:103ACC001C000020686900082000002088010020EC
:103ADC00FEE7000080B500AF084B1B68074A43F0B7
:103AEC0010031360032000F047F90F2000F008F8D2
:103AFC00FFF7B2FE0023184680BD00BF0020024035
:103B0C0080B582B000AF7860124B1A68124B1B78EC
:103B1C0019464FF47A73B3FBF1F3B2FBF3F3184687
:103B2C0000F05FF90346002B01D001230EE07B6807
:103B3C000F2B0AD8002279684FF0FF3000F027F9DC
:103B4C00064A7B681360002300E0012318460837FF
:103B5C00BD4680BD1000002018000020140000207D
:103B6C0080B400AF054B1B781A46054B1B681344F9
:103B7C00034A136000BFBD4680BC7047180000208C
:103B8C006001002080B400AF024B1B681846BD4694
:103B9C0080BC70476001002080B584B000AF7860B5
:103BAC00FFF7F0FFB8607B68FB60FB68B3F1FF3F89
:103BBC0005D00A4B1B781A46FB681344FB6000BF08
:103BCC00FFF7E0FF0246BB68D31AFA689A42F7D8AF
:103BDC0000BF00BF1037BD4680BD00BF18000020DD
:103BEC0080B485B000AF78607B6803F00703FB609E
:103BFC000C4BDB68BB60BA684FF6FF031340BB602D
:103C0C00FB681A02BB68134343F0BF6343F40033F1
:103C1C00BB60044ABB68D36000BF1437BD4680BC90
:103C2C00704700BF00ED00E080B400AF044BDB68D0
:103C3C001B0A03F007031846BD4680BC704700BF43
:103C4C0000ED00E080B483B000AF0346FB7197F940
:103C5C000730002B0BDBFB7903F01F02064997F9A9
:103C6C0007305B09012000FA02F241F8232000BF63
:103C7C000C37BD4680BC704700E100E080B483B0D7
:103C8C0000AF03463960FB7197F90730002B0ADB54
:103C9C003B68DAB20C4997F907301201D2B20B44E7
:103CAC0083F800230AE03B68DAB20849FB7903F099
:103CBC000F03043B1201D2B20B441A7600BF0C372F
:103CCC00BD4680BC704700BF00E100E000ED00E0A5
:103CDC0080B489B000AFF860B9607A60FB6803F01B
:103CEC000703FB61FB69C3F10703042B28BF042303
:103CFC00BB61FB690433062B02D9FB69033B00E073
:103D0C0000237B614FF0FF32BB6902FA03F3DA4305
:103D1C00BB681A407B699A404FF0FF317B6901FA0E
:103D2C0003F3D9437B680B40134318462437BD4635
:103D3C0080BC704780B582B000AF78607B68013B77
:103D4C00B3F1807F01D301230FE00A4A7B68013B6A
:103D5C0053600F214FF0FF30FFF790FF054B00220F
:103D6C009A60044B07221A60002318460837BD4698
:103D7C0080BD00BF10E000E080B582B000AF78607D
:103D8C007868FFF72DFF00BF0837BD4680BD80B5B2
:103D9C0086B000AF0346B9607A60FB7300237B6189
:103DAC00FFF742FF78617A68B9687869FFF790FF8E
:103DBC00024697F90F3011461846FFF75FFF00BF18
:103DCC001837BD4680BD80B582B000AF0346FB718D
:103DDC0097F907301846FFF735FF00BF0837BD4687
:103DEC0080BD80B582B000AF78607868FFF7A2FF25
:103DFC00034618460837BD4680BD0000F0B587B0B5
:103E0C0000AFF860B960C7E900230123FB750023FC
:103E1C00BB7500237B752F4B1B7E012B01D102231D
:103E2C0054E02C4B01221A764CF2503000F0A8F8DA
:103E3C000346FB75FB7D002B44D1FB68012B02D1A3
:103E4C0001237B7507E0FB68022B02D102237B75F3
:103E5C0001E004237B750023BB752DE0BB7D5A006C
:103E6C00BB6802EB030CBB7D1901D7E90023C1F140
:103E7C002006A1F1200022FA01F403FA06F63443DD
:103E8C0023FA00F0044323FA01F5A3B21946604665
:103E9C0000F05AF84CF2503000F072F80346FB7503
:103EAC000D4B1B690C4A23F001031361FB7D002BA6
:103EBC0007D1BB7D0133BB75BA7D7B7D9A42CDD3D7
:103ECC0000E000BF034B00221A76FB7D18461C371E
:103EDC00BD46F0BD680100200020024080B483B0D4
:103EEC0000AF0023FB710D4B1B6903F08003002B0B
:103EFC000DD00A4B0A4A5A60084B0A4A5A60074BC3
:103F0C001B6903F08003002B01D00123FB71FB79AB
:103F1C0018460C37BD4680BC704700BF00200240DD
:103F2C0023016745AB89EFCD80B400AF054B1B690E
:103F3C00044A43F08003136100231846BD4680BC3D
:103F4C00704700BF0020024080B483B000AF78609F
:103F5C000B467B80084B0022DA61084B1B69074A31
:103F6C0043F0010313617B687A881A8000BF0C3719
:103F7C00BD4680BC704700BF680100200020024095
:103F8C0080B584B000AF7860FFF7FCFDF86010E0FE
:103F9C007B68B3F1FF3F0CD07B68002B07D0FFF799
:103FAC00F1FD0246FB68D31A7A689A4201D20323C8
:103FBC0025E0154BDB6803F00103002BE8D1124B15
:103FCC00DB6803F02003002B02D00F4B2022DA60B9
:103FDC000D4BDB6803F01003002B0BD10A4BDB6994
:103FEC0003F00103002B05D1074BDB6803F004033E
:103FFC00002B03D000F00AF8012300E00023184640
:10400C001037BD4680BD00BF0020024080B483B095
:10401C0000AF00237B60234BDB6803F01003002B05
:10402C0009D0214BDB6943F002031F4AD3617B6843
:10403C0043F010037B601B4BDB6803F00403002B85
:10404C0009D0194BDB6943F00103174AD3617B6834
:10405C0043F004037B60134BDB6903F00103002B7B
:10406C000BD0114BDB6943F004030F4AD3610D4BAA
:10407C00DB690C4A23F00103D3617B6840F2011227
:10408C00934206D1074BDB69064A23F00103D36147
:10409C0002E0044A7B68D36000BF0C37BD4680BC8D
:1040AC00704700BF002002406801002080B584B03A
:1040BC0000AF786039600123FB730023BB602F4B8A
:1040CC001B7E012B01D1022353E02C4B01221A76CB
:1040DC007B681B68022B16D14CF25030FFF750FF57
:1040EC000346002B41D1012000F04CF84CF250302B
:1040FC00FFF746FF0346FB73214B1B69204A23F055
:10410C000403136131E04CF25030FFF739FF0346E2
:10411C00002B2AD13B684FF0FF321A607B689B68FA
:10412C00BB6019E0B86800F049F84CF25030FFF76A
:10413C0027FF0346FB73124B1B69114A23F0020342
:10414C001361FB7B002B03D03B68BA681A600CE050
:10415C00BB6803F58063BB607B68DB689A027B6895
:10416C009B681344BA689A42DCD3044B00221A763B
:10417C00FB7B18461037BD4680BD00BF6801002090
:10418C000020024080B483B000AF7860094B00225D
:10419C00DA61094B1B69084A43F004031361064BAF
:1041AC001B69054A43F04003136100BF0C37BD4641
:1041BC0080BC7047680100200020024080B483B0AE
:1041CC0000AF78600B4B0022DA610B4B1B690A4A7B
:1041DC0043F002031361084A7B685361064B1B6969
:1041EC00054A43F04003136100BF0C37BD4680BC49
:1041FC00704700BF680100200020024080B48BB0E3
:10420C0000AF7860396000237B6200233B6269E178
:10421C0001227B6A02FA03F3FB613B681B68FA69B3
:10422C001340BB61BA69FB699A4240F058813B6804
:10423C005B689A4A93425ED0984A934275D8984AE2
:10424C00934258D0964A93426FD8964A934252D092
:10425C00944A934269D8944A93424CD0924A9342DE
:10426C0063D8924A934246D0904A93425DD8122B1F
:10427C002AD8122B59D801A252F823F00343000874
:10428C00DD420008EF4200083143000837430008C4
:10429C00374300083743000837430008374300080A
:1042AC0037430008374300083743000837430008FA
:1042BC0037430008374300083743000837430008EA
:1042CC00E5420008F9420008794A934213D02CE0E9
:1042DC003B68DB683B6229E03B68DB6804333B628C
:1042EC0024E03B68DB6808333B621FE03B68DB681B
:1042FC000C333B621AE03B689B68002B02D1042311
:10430C003B6213E03B689B68012B05D108233B62A1
:10431C007B68FA691A6109E008233B627B68FA69D9
:10432C005A6103E000233B6200E000BFBB69FF2B36
:10433C0001D87B6801E07B6804337B61BB69FF2B90
:10434C0002D87B6A9B0002E07B6A083B9B003B61C6
:10435C007B691A680F213B6901FA03F3DB431A40AE
:10436C00396A3B6901FA03F31A437B691A603B68AB
:10437C005B6803F08053002B00F0B1804D4B9B69C0
:10438C004C4A43F0010393614A4B9B6903F00103D0
:10439C00BB60BB68484A7B6A9B08023352F82330E7
:1043AC00FB607B6A03F003039B000F2202FA03F30A
:1043BC00DB43FA681340FB607B68404A934213D09E
:1043CC007B683F4A93420DD07B683E4A934207D0AC
:1043DC007B683D4A934201D1032306E0042304E0A9
:1043EC00022302E0012300E000237A6A02F00302B8
:1043FC0092009340FA681343FB602F497B6A9B0839
:10440C000233FA6841F823203B685B6803F480337D
:10441C00002B06D02D4B1A682C49BB6913430B603B
:10442C0006E02A4B1A68BB69DB43284913400B6032
:10443C003B685B6803F40033002B06D0234B5A68AF
:10444C002249BB6913434B6006E0204B5A68BB6999
:10445C00DB431E4913404B603B685B6803F48013DD
:10446C00002B06D0194B9A681849BB6913438B6013
:10447C0006E0164B9A68BB69DB43144913408B600A
:10448C003B685B6803F40013002B21D00F4BDA68F8
:10449C000E49BB691343CB6021E000BF0000321012
:1044AC00000031100000221000002110000012103A
:1044BC0000001110001002400000014000080140F3
:1044CC00000C0140001001400014014000040140A8
:1044DC000B4BDA68BB69DB4309491340CB607B6A41
:1044EC0001337B623B681A687B6A22FA03F3002B68
:1044FC007FF48EAE00BF00BF2C37BD4680BC70472A
:10450C000004014080B485B000AF78600B467B801E
:10451C007B689A687B881340002B02D00123FB73C5
:10452C0001E00023FB73FB7B18461437BD4680BCAF
:10453C00704780B483B000AF78600B467B80134625
:10454C007B707B78002B03D07A887B681A6103E040
:10455C007B881A047B681A6100BF0C37BD4680BC8F
:10456C00704780B485B000AF78600B467B807B6869
:10457C00DB68FB607A88FB6813401A04FB68D9433C
:10458C007B880B401A437B681A6100BF1437BD4609
:10459C0080BC704780B584B000AF78607B68002B1E
:1045AC0001D101232BE17B6893F83D30DBB2002B6A
:1045BC0006D17B68002283F83C207868FFF77EF9EF
:1045CC007B68242283F83D207B681B681A687B6813
:1045DC001B6822F001021A607B681B681A687B68F2
:1045EC001B6842F400421A607B681B681A687B687F
:1045FC001B6822F400421A6000F0EAFFF8607B6846
:10460C005B68814A934207D8FB68804A934294BF07
:10461C0001230023DBB206E0FB687D4A934294BF82
:10462C0001230023DBB2002B01D00123E7E0FB6860
:10463C00784AA2FB03239B0CBB607B681B685B68FE
:10464C0023F03F017B681B68BA680A435A607B6899
:10465C001B681B6A23F03F017B685B686A4A9342C4
:10466C0002D8BB68013309E0BB684FF4967202FBB9
:10467C0003F3694AA2FB03239B0901337A6812688E
:10468C000B4313627B681B68DB6923F44F4222F0F7
:10469C00FF027B685B685C498B4219D8FB68591E2A
:1046AC007B685B685B00B1FBF3F3591C40F6FC7351
:1046BC000B40002B0AD0FB68591E7B685B685B00C3
:1046CC00B1FBF3F30133C3F30B0351E004234FE0CD
:1046DC007B689B68002B11D1FB68581E7B6859685E
:1046EC000B465B000B44B0FBF3F30133C3F30B033A
:1046FC00002B0CBF01230023DBB212E0FB68581E19
:10470C007B6859680B469B000B4499000B44B0FB2B
:10471C00F3F30133C3F30B03002B0CBF0123002372
:10472C00DBB2002B01D0012322E07B689B68002BBD
:10473C000ED1FB68581E7B6859680B465B000B4416
:10474C00B0FBF3F30133C3F30B0343F400430FE06B
:10475C00FB68581E7B6859680B469B000B449900FC
:10476C000B44B0FBF3F30133C3F30B0343F44043AB
:10477C00796809681343CB617B681B681B6823F05D
:10478C00C0017B68DA697B681B6A1A437B681B680B
:10479C000A431A607B681B689B6823F4034323F06D
:1047AC00FF037A6811697A68D26811437A681268D3
:1047BC000B4393607B681B68DB6823F0FF017B680D
:1047CC005A697B689B691A437B681B680A43DA60E9
:1047DC007B681B681A687B681B6842F001021A60D0
:1047EC007B6800221A647B68202283F83D207B685A
:1047FC0000221A637B68002283F83E2000231846AF
:10480C001037BD4680BD00BFA08601007F841E000E
:10481C00FF083D0083DE1B43D34D621080B588B08A
:10482C0002AFF8607A601A460B467B8113463B81D7
:10483C00FFF7A8F97861FB6893F83D30DBB2202BC9
:10484C0040F0E0807B690093192301227049F868DD
:10485C0000F064F90346002B01D00223D3E0FB687F
:10486C0093F83C30012B01D10223CCE0FB680122F0
:10487C0083F83C20FB681B681B6803F00103012BC9
:10488C0007D0FB681B681A68FB681B6842F00102C2
:10489C001A60FB681B681A68FB681B6822F40062CC
:1048AC001A60FB68212283F83D20FB68102283F8F4
:1048BC003E20FB6800221A64FB687A685A62FB6827
:1048CC003A895A85FB685B8D9AB2FB681A85FB683E
:1048DC00504ADA6279897B693A6AF86800F09CF888
:1048EC000346002B01D001238DE000233B61FB68C4
:1048FC001B685B693B61FB681B689B693B613B699F
:10490C0066E07A69396AF86800F0DEF90346002B34
:10491C000DD0FB681B6C042B07D1FB681B681A6855
:10492C00FB681B6842F400721A6001236BE0FB68A1
:10493C005B6A1A78FB681B681A61FB685B6A5A1C15
:10494C00FB685A62FB685B8D9BB2013B9AB2FB68B9
:10495C005A85FB681B8D013B9AB2FB681A85FB6874
:10496C001B685B6903F00403042B1BD1FB681B8DD4
:10497C00002B17D0FB685B6A1A78FB681B681A61FE
:10498C00FB685B6A5A1CFB685A62FB685B8D9BB2C6
:10499C00013B9AB2FB685A85FB681B8D013B9AB2AE
:1049AC00FB681A857A69396AF86800F0CEF9034613
:1049BC00002B0DD0FB681B6C042B07D1FB681B680C
:1049CC001A68FB681B6842F400721A6001231AE033
:1049DC00FB681B8D002B94D1FB681B681A68FB6865
:1049EC001B6842F400721A60FB68202283F83D2099
:1049FC00FB68002283F83E20FB68002283F83C20F1
:104A0C00002300E0022318461837BD4680BD00BFC6
:104A1C00020010000000FFFF80B588B002AFF86004
:104A2C007A603B600B467B81FB68DB6A7B617B6950
:104A3C00082B06D07B69012B03D07B6913F5803FD3
:104A4C0008D1FB681B681A68FB681B6842F480720B
:104A5C001A600BE0FB681B6B122B07D1FB681B6801
:104A6C001A68FB681B6842F480721A603B680093FA
:104A7C007B6800224FF00111F86800F04FF80346F4
:104A8C00002B0DD0FB681B681B6803F48073B3F517
:104A9C00807F03D1FB684FF400721A64032335E066
:104AAC00FB681B69B3F5804F08D17B89DBB21A46D2
:104ABC00FB681B6802F0FE021A611BE07B89DB11AC
:104ACC00DBB203F00603DBB263F00F03DAB2FB6870
:104ADC001B681A613B687A680E49F86800F075F833
:104AEC000346002B01D0012310E07B89DAB2FB686E
:104AFC001B681A613B687A680749F86800F065F82A
:104B0C000346002B01D0012300E000231846183780
:104B1C00BD4680BD080001000200010080B584B0D4
:104B2C0000AFF860B9603B601346FB7125E03B6851
:104B3C00B3F1FF3F21D0FFF725F80246BB69D31A2A
:104B4C003A689A4202D33B68002B16D1FB680022CC
:104B5C001A63FB68202283F83D20FB68002283F84F
:104B6C003E20FB681B6C43F02002FB681A64FB6858
:104B7C00002283F83C20012323E0BB681B0CDBB232
:104B8C00012B0DD1FB681B685B69DA43BB681340D2
:104B9C009BB2002B0CBF01230023DBB21A460CE0A6
:104BAC00FB681B689B69DA43BB6813409BB2002B04
:104BBC000CBF01230023DBB21A46FB799A42B6D014
:104BCC00002318461037BD4680BD80B584B000AFB9
:104BDC00F860B9607A603B6051E0FB681B685B6908
:104BEC0003F48063B3F5806F23D1FB681B681A68EC
:104BFC00FB681B6842F400721A60FB681B686FF458
:104C0C0080625A61FB6800221A63FB68202283F8D9
:104C1C003D20FB68002283F83E20FB681B6C43F0B0
:104C2C000402FB681A64FB68002283F83C20012311
:104C3C0046E07B68B3F1FF3F21D0FEF7A3FF0246AD
:104C4C003B68D31A7A689A4202D37B68002B16D140
:104C5C00FB6800221A63FB68202283F83D20FB6866
:104C6C00002283F83E20FB681B6C43F02002FB689B
:104C7C001A64FB68002283F83C20012320E0BB6807
:104C8C001B0CDBB2012B0CD1FB681B685B69DA4394
:104C9C00BB6813409BB2002B14BF01230023DBB273
:104CAC000BE0FB681B689B69DA43BB6813409BB243
:104CBC00002B14BF01230023DBB2002B8DD100236A
:104CCC0018461037BD4680BD80B584B000AFF86083
:104CDC00B9607A602DE0F86800F078F80346002B94
:104CEC0001D001232DE0BB68B3F1FF3F21D0FEF7CB
:104CFC0049FF02467B68D31ABA689A4202D3BB6852
:104D0C00002B16D1FB6800221A63FB68202283F863
:104D1C003D20FB68002283F83E20FB681B6C43F0AF
:104D2C002002FB681A64FB68002283F83C200123F4
:104D3C0007E0FB681B685B6903F08003802BCAD11A
:104D4C00002318461037BD4680BD80B584B000AF37
:104D5C00F860B9607A602DE0F86800F037F8034627
:104D6C00002B01D001232DE0BB68B3F1FF3F21D014
:104D7C00FEF708FF02467B68D31ABA689A4202D340
:104D8C00BB68002B16D1FB6800221A63FB6820223B
:104D9C0083F83D20FB68002283F83E20FB681B6CE7
:104DAC0043F02002FB681A64FB68002283F83C2065
:104DBC00012307E0FB681B685B6903F00403042B09
:104DCC00CAD1002318461037BD4680BD80B483B0CD
:104DDC0000AF78607B681B685B6903F48063B3F594
:104DEC00806F1BD17B681B686FF480625A617B6893
:104DFC0000221A637B68202283F83D207B68002206
:104E0C0083F83E207B681B6C43F004027B681A64B9
:104E1C007B68002283F83C20012300E00023184625
:104E2C000C37BD4680BC704780B586B000AF78604B
:104E3C007B68002B01D1012372E27B681B6803F0B5
:104E4C000103002B00F08780924B5B6803F00C038E
:104E5C00042B0CD08F4B5B6803F00C03082B12D186
:104E6C008C4B5B6803F48033B3F5803F0BD1894BDB
:104E7C001B6803F40033002B6CD07B685B68002B41
:104E8C0068D101234CE27B685B68B3F5803F06D1A7
:104E9C00804B1B687F4A43F4803313602EE07B68A1
:104EAC005B68002B0CD17B4B1B687A4A23F4803354
:104EBC001360784B1B68774A23F4802313601DE042
:104ECC007B685B68B3F5A02F0CD1724B1B68714AE1
:104EDC0043F4802313606F4B1B686E4A43F480339A
:104EEC0013600BE06B4B1B686A4A23F4803313602E
:104EFC00684B1B68674A23F4802313607B685B68EC
:104F0C00002B13D0FEF73EFE386108E0FEF73AFEA8
:104F1C0002463B69D31A642B01D9032300E25D4B93
:104F2C001B6803F40033002BF0D014E0FEF72AFECC
:104F3C00386108E0FEF726FE02463B69D31A642B63
:104F4C0001D90323ECE1534B1B6803F40033002B12
:104F5C00F0D100E000BF7B681B6803F00203002B5C
:104F6C0063D04C4B5B6803F00C03002B0BD0494B0C
:104F7C005B6803F00C03082B1CD1464B5B6803F4F5
:104F8C008033002B16D1434B1B6803F00203002B1C
:104F9C0005D07B681B69012B01D00123C0E13D4B7F
:104FAC001B6823F0F8027B685B69DB00394913430B
:104FBC000B603AE07B681B69002B20D0364B01223A
:104FCC001A60FEF7DFFD386108E0FEF7DBFD0246F4
:104FDC003B69D31A022B01D90323A1E12D4B1B688A
:104FEC0003F00203002BF0D02A4B1B6823F0F802CD
:104FFC007B685B69DB00274913430B6015E0264B8C
:10500C0000221A60FEF7BEFD386108E0FEF7BAFD1B
:10501C0002463B69D31A022B01D9032380E11D4BB5
:10502C001B6803F00203002BF0D17B681B6803F0B4
:10503C000803002B3AD07B689B69002B19D0174BC7
:10504C0001221A60FEF79EFD386108E0FEF79AFD1A
:10505C0002463B69D31A022B01D9032360E10D4BA5
:10506C005B6A03F00203002BF0D0012000F0C4FABD
:10507C001CE00A4B00221A60FEF784FD38610FE039
:10508C00FEF780FD02463B69D31A022B08D9032395
:10509C0046E100BF00100240000042428004424240
:1050AC00924B5B6A03F00203002BE9D17B681B680F
:1050BC0003F00403002B00F0A6800023FB758B4B40
:1050CC00DB6903F08053002B0DD1884BDB69874AD9
:1050DC0043F08053D361854BDB6903F08053BB6095
:1050EC00BB680123FB75824B1B6803F48073002B98
:1050FC0018D17F4B1B687E4A43F480731360FEF714
:10510C0041FD386108E0FEF73DFD02463B69D31ACC
:10511C00642B01D9032303E1754B1B6803F48073E3
:10512C00002BF0D07B68DB68012B06D16F4B1B6A20
:10513C006E4A43F0010313622DE07B68DB68002BA1
:10514C000CD16A4B1B6A694A23F001031362674B4B
:10515C001B6A664A23F0040313621CE07B68DB685D
:10516C00052B0CD1614B1B6A604A43F0040313629C
:10517C005E4B1B6A5D4A43F0010313620BE05B4B11
:10518C001B6A5A4A23F001031362584B1B6A574A95
:10519C0023F0040313627B68DB68002B15D0FEF749
:1051AC00F1FC38610AE0FEF7EDFC02463B69D31ACC
:1051BC0041F28832934201D90323B1E04B4B1B6A75
:1051CC0003F00203002BEED014E0FEF7DBFC386199
:1051DC000AE0FEF7D7FC02463B69D31A41F288324B
:1051EC00934201D903239BE0404B1B6A03F002035B
:1051FC00002BEED1FB7D012B05D13C4BDB693B4AEF
:10520C0023F08053D3617B68DB69002B00F087802F
:10521C00364B5B6803F00C03082B61D07B68DB69B1
:10522C00022B46D1334B00221A60FEF7ABFC3861DF
:10523C0008E0FEF7A7FC02463B69D31A022B01D902
:10524C0003236DE0294B1B6803F00073002BF0D196
:10525C007B681B6AB3F5803F08D1244B5B6823F451
:10526C0000327B689B68214913434B601F4B5B6882
:10527C0023F474127B68196A7B685B6A0B431B49C5
:10528C0013434B601B4B01221A60FEF77BFC386109
:10529C0008E0FEF777FC02463B69D31A022B01D9D2
:1052AC0003233DE0114B1B6803F00073002BF0D07F
:1052BC0035E0104B00221A60FEF764FC386108E000
:1052CC00FEF760FC02463B69D31A022B01D903237B
:1052DC0026E0064B1B6803F00073002BF0D11EE098
:1052EC007B68DB69012B07D1012319E00010024018
:1052FC0000700040600042420B4B5B68FB60FB6837
:10530C0003F480327B681B6A9A4206D1FB6803F473
:10531C0070127B685B6A9A4201D0012300E0002383
:10532C0018461837BD4680BD0010024080B584B0C9
:10533C0000AF786039607B68002B01D10123D0E08D
:10534C006A4B1B6803F007033A689A4210D9674B03
:10535C001B6823F0070265493B6813430B60634BE2
:10536C001B6803F007033A689A4201D00123B8E0A6
:10537C007B681B6803F00203002B20D07B681B6842
:10538C0003F00403002B05D0594B5B68584A43F4D7
:10539C00E06353607B681B6803F00803002B05D0A7
:1053AC00534B5B68524A43F460535360504B5B68F9
:1053BC0023F0F0027B689B684D4913434B607B687C
:1053CC001B6803F00103002B40D07B685B68012B4A
:1053DC0007D1474B1B6803F40033002B15D1012375
:1053EC007FE07B685B68022B07D1414B1B6803F0A5
:1053FC000073002B09D1012373E03D4B1B6803F0B4
:10540C000203002B01D101236BE0394B5B6823F0C5
:10541C0003027B685B68364913434B60FEF7B2FBB3
:10542C00F8600AE0FEF7AEFB0246FB68D31A41F2C5
:10543C008832934201D9032353E02D4B5B6803F070
:10544C000C027B685B689B009A42EBD1274B1B6874
:10545C0003F007033A689A4210D2244B1B6823F0DE
:10546C00070222493B6813430B60204B1B6803F077
:10547C0007033A689A4201D0012332E07B681B682B
:10548C0003F00403002B08D0194B5B6823F4E06293
:10549C007B68DB68164913434B607B681B6803F021
:1054AC000803002B09D0124B5B6823F460527B6815
:1054BC001B69DB000E4913434B6000F021F80246D8
:1054CC000B4B5B681B0903F00F030A49CB5C22FAF8
:1054DC0003F3094A1360094B1B681846FEF710FBCF
:1054EC00002318461037BD4680BD00BF0020024087
:1054FC000010024048690008100000201400002031
:10550C0090B48AB000AF294B3C1D0FCB84E80F0040
:10551C0040F201233B800023FB610023BB6100238D
:10552C007B6200237B6100233B62214B5B68FB6148
:10553C00FB6903F00C03042B02D0082B03D02BE0E7
:10554C001C4B3B622BE0FB699B0C03F00F032833D5
:10555C003B4413F8243C7B61FB6903F48033002B40
:10556C0012D0134B5B685B0C03F0010328333B44F4
:10557C0013F8283CBB617B690E4A03FB02F2BB6942
:10558C00B2FBF3F37B6204E07B690B4A02FB03F38F
:10559C007B627B6A3B6202E0064B3B6200BF3B6A6C
:1055AC0018462837BD4690BC704700BF28690008D4
:1055BC000010024000127A0000093D0080B400AFD8
:1055CC00024B1B681846BD4680BC7047100000207B
:1055DC0080B500AFFFF7F2FF0246054B5B681B0A74
:1055EC0003F007030349CB5C22FA03F3184680BD92
:1055FC00001002405869000880B485B000AF786094
:10560C000A4B1B680A4AA2FB03235B0A7A6802FB5B
:10561C0003F3FB6000BFFB685A1EFA60002BF9D144
:10562C0000BF00BF1437BD4680BC7047100000207F
:10563C00D34D621080B582B000AF78607B68002BD0
:10564C0001D1012376E07B685B6A002B08D17B6873
:10565C005B68B3F5827F09D07B680022DA6105E0D4
:10566C007B6800221A617B6800225A617B680022E9
:10567C009A627B6893F85130DBB2002B06D17B68C1
:10568C00002283F850207868FEF758F97B680222D4
:10569C0083F851207B681B681A687B681B6822F0B2
:1056AC0040021A607B685B6803F482727B689B68BB
:1056BC0003F404431A437B68DB6803F400631A4366
:1056CC007B681B6903F002031A437B685B6903F078
:1056DC0001031A437B689B6903F400731A437B68CC
:1056EC00DB6903F038031A437B681B6A03F0800301
:1056FC0042EA03017B689B6A03F400527B681B68D7
:10570C000A431A607B689B691A0C7B681B6802F061
:10571C0004025A607B681B68DA697B681B6822F498
:10572C000062DA617B6800225A657B68012283F88B
:10573C005120002318460837BD4680BD80B58CB07B
:10574C0000AFF860B9607A607B800123FB620023B4
:10575C0087F82B30FB6893F85030012B01D10223D2
:10576C008AE1FB68012283F85020FEF70BFA78627D
:10577C00FB6893F8513087F82330FB685B68FB615A
:10578C007B887B8397F82330012B0FD0FB69B3F513
:10579C00827F07D1FB689B68002B03D197F82330DD
:1057AC00042B03D0022387F82B305BE1BB68002B62
:1057BC0005D07B68002B02D07B88002B03D1012302
:1057CC0087F82B304EE1FB6893F85130DBB2042B99
:1057DC0003D0FB68052283F85120FB6800225A6530
:1057EC00FB687A689A63FB687A88DA87FB687A8840
:1057FC009A87FB68BA681A63FB687A88DA86FB6852
:10580C007A889A86FB6800221A64FB6800225A6424
:10581C00FB681B681B6803F04003402B07D0FB6838
:10582C001B681A68FB681B6842F040021A60FB6830
:10583C00DB68B3F5006F78D1FB685B68002B02D096
:10584C007B8B012B66D1FB681B6B1A88FB681B6872
:10585C00DA60FB681B6B9A1CFB681A63FB68DB8EB7
:10586C009BB2013B9AB2FB68DA8653E0FB681B687B
:10587C009B6803F00203022B1BD1FB68DB8E9BB2EF
:10588C00002B16D0FB6A012B13D1FB681B6B1A88FB
:10589C00FB681B68DA60FB681B6B9A1CFB681A635D
:1058AC00FB68DB8E9BB2013B9AB2FB68DA86002365
:1058BC00FB62FB681B689B6803F00103012B19D189
:1058CC00FB68DB8F9BB2002B14D0FB681B68DA687B
:1058DC00FB689B6B92B21A80FB689B6B9A1CFB68F3
:1058EC009A63FB68DB8F9BB2013B9AB2FB68DA8749
:1058FC000123FB62FEF746F902467B6AD31ABA6BA8
:10590C009A4207D8BB6BB3F1FF3F03D0032387F850
:10591C002B30A7E0FB68DB8E9BB2002BA6D1FB687B
:10592C00DB8F9BB2002BA1D17CE0FB685B68002B6A
:10593C0002D07B8B012B6BD1FB681A6BFB681B684D
:10594C000C3312781A70FB681B6B5A1CFB681A63B9
:10595C00FB68DB8E9BB2013B9AB2FB68DA8657E0A0
:10596C00FB681B689B6803F00203022B1CD1FB68CD
:10597C00DB8E9BB2002B17D0FB6A012B14D1FB687A
:10598C001A6BFB681B680C3312781A70FB681B6B64
:10599C005A1CFB681A63FB68DB8E9BB2013B9AB204
:1059AC00FB68DA860023FB62FB681B689B6803F0CC
:1059BC000103012B19D1FB68DB8F9BB2002B14D098
:1059CC00FB681B68DA68FB689B6BD2B21A70FB68C9
:1059DC009B6B5A1CFB689A63FB68DB8F9BB2013B89
:1059EC009AB2FB68DA870123FB62FEF7CBF802461A
:1059FC007B6AD31ABA6B9A4203D8BB6BB3F1FF3FE5
:105A0C0002D1BB6B002B03D1032387F82B3029E089
:105A1C00FB68DB8E9BB2002BA2D1FB68DB8F9BB2A9
:105A2C00002B9DD17A6AB96BF86800F0B1F8034687
:105A3C00002B06D0012387F82B30FB6820225A65F7
:105A4C0010E0FB689B68002B0BD100237B61FB688B
:105A5C001B68DB687B61FB681B689B687B617B69EF
:105A6C0000E000BFFB68012283F85120FB68002294
:105A7C0083F8502097F82B3018463037BD4680BD40
:105A8C0080B588B000AFF860B9603B601346FB711D
:105A9C00FEF778F80246BB6A9B1A3A681344FB611E
:105AAC00FEF770F8B861394B1B685B011B0DFA6986
:105ABC0002FB03F37B6154E03B68B3F1FF3F50D032
:105ACC00FEF760F80246BB69D31AFA699A4202D90A
